{
  "contractName": "MyToken",
  "abi": [
    {
      "inputs": [
        {
          "internalType": "string",
          "name": "_name",
          "type": "string"
        },
        {
          "internalType": "string",
          "name": "_symbol",
          "type": "string"
        },
        {
          "internalType": "uint256",
          "name": "_decimal",
          "type": "uint256"
        },
        {
          "internalType": "uint256",
          "name": "_totalSupply",
          "type": "uint256"
        }
      ],
      "stateMutability": "nonpayable",
      "type": "constructor"
    },
    {
      "anonymous": false,
      "inputs": [
        {
          "indexed": false,
          "internalType": "address",
          "name": "owner",
          "type": "address"
        },
        {
          "indexed": false,
          "internalType": "address",
          "name": "spender",
          "type": "address"
        },
        {
          "indexed": false,
          "internalType": "uint256",
          "name": "amount",
          "type": "uint256"
        }
      ],
      "name": "Allowance",
      "type": "event"
    },
    {
      "anonymous": false,
      "inputs": [
        {
          "indexed": false,
          "internalType": "address",
          "name": "staker",
          "type": "address"
        },
        {
          "indexed": false,
          "internalType": "uint256",
          "name": "amount",
          "type": "uint256"
        },
        {
          "indexed": false,
          "internalType": "uint256",
          "name": "",
          "type": "uint256"
        }
      ],
      "name": "Stake",
      "type": "event"
    },
    {
      "anonymous": false,
      "inputs": [
        {
          "indexed": false,
          "internalType": "address",
          "name": "sender",
          "type": "address"
        },
        {
          "indexed": false,
          "internalType": "address",
          "name": "receiver",
          "type": "address"
        },
        {
          "indexed": false,
          "internalType": "uint256",
          "name": "amount",
          "type": "uint256"
        }
      ],
      "name": "Transfer",
      "type": "event"
    },
    {
      "inputs": [
        {
          "internalType": "address",
          "name": "staker_address",
          "type": "address"
        }
      ],
      "name": "_calculateSummary",
      "outputs": [
        {
          "components": [
            {
              "internalType": "address",
              "name": "user",
              "type": "address"
            },
            {
              "internalType": "uint256",
              "name": "total_staked_amount",
              "type": "uint256"
            },
            {
              "internalType": "uint256",
              "name": "total_reward",
              "type": "uint256"
            }
          ],
          "internalType": "struct Stakeable.UserSummary",
          "name": "",
          "type": "tuple"
        }
      ],
      "stateMutability": "view",
      "type": "function",
      "constant": true
    },
    {
      "inputs": [
        {
          "internalType": "address",
          "name": "",
          "type": "address"
        },
        {
          "internalType": "address",
          "name": "",
          "type": "address"
        }
      ],
      "name": "allowances",
      "outputs": [
        {
          "internalType": "uint256",
          "name": "",
          "type": "uint256"
        }
      ],
      "stateMutability": "view",
      "type": "function",
      "constant": true
    },
    {
      "inputs": [
        {
          "internalType": "address",
          "name": "",
          "type": "address"
        }
      ],
      "name": "balances",
      "outputs": [
        {
          "internalType": "uint256",
          "name": "",
          "type": "uint256"
        }
      ],
      "stateMutability": "view",
      "type": "function",
      "constant": true
    },
    {
      "inputs": [],
      "name": "contract_owner",
      "outputs": [
        {
          "internalType": "address",
          "name": "",
          "type": "address"
        }
      ],
      "stateMutability": "view",
      "type": "function",
      "constant": true
    },
    {
      "inputs": [],
      "name": "decimal",
      "outputs": [
        {
          "internalType": "uint256",
          "name": "",
          "type": "uint256"
        }
      ],
      "stateMutability": "view",
      "type": "function",
      "constant": true
    },
    {
      "inputs": [],
      "name": "name",
      "outputs": [
        {
          "internalType": "string",
          "name": "",
          "type": "string"
        }
      ],
      "stateMutability": "view",
      "type": "function",
      "constant": true
    },
    {
      "inputs": [],
      "name": "symbol",
      "outputs": [
        {
          "internalType": "string",
          "name": "",
          "type": "string"
        }
      ],
      "stateMutability": "view",
      "type": "function",
      "constant": true
    },
    {
      "inputs": [],
      "name": "totalSupply",
      "outputs": [
        {
          "internalType": "uint256",
          "name": "",
          "type": "uint256"
        }
      ],
      "stateMutability": "view",
      "type": "function",
      "constant": true
    },
    {
      "inputs": [
        {
          "internalType": "uint256",
          "name": "amount",
          "type": "uint256"
        },
        {
          "internalType": "address",
          "name": "recepient",
          "type": "address"
        }
      ],
      "name": "transfer",
      "outputs": [],
      "stateMutability": "nonpayable",
      "type": "function"
    },
    {
      "inputs": [
        {
          "internalType": "address",
          "name": "recepient",
          "type": "address"
        },
        {
          "internalType": "uint256",
          "name": "amount",
          "type": "uint256"
        }
      ],
      "name": "approve",
      "outputs": [],
      "stateMutability": "nonpayable",
      "type": "function"
    },
    {
      "inputs": [
        {
          "internalType": "address",
          "name": "owner",
          "type": "address"
        },
        {
          "internalType": "address",
          "name": "recepient",
          "type": "address"
        },
        {
          "internalType": "uint256",
          "name": "amount",
          "type": "uint256"
        }
      ],
      "name": "transferFrom",
      "outputs": [],
      "stateMutability": "nonpayable",
      "type": "function"
    },
    {
      "inputs": [
        {
          "internalType": "address",
          "name": "recepient",
          "type": "address"
        },
        {
          "internalType": "uint256",
          "name": "amount",
          "type": "uint256"
        }
      ],
      "name": "mint",
      "outputs": [
        {
          "internalType": "bool",
          "name": "",
          "type": "bool"
        }
      ],
      "stateMutability": "nonpayable",
      "type": "function"
    },
    {
      "inputs": [
        {
          "internalType": "address",
          "name": "sender",
          "type": "address"
        },
        {
          "internalType": "uint256",
          "name": "amount",
          "type": "uint256"
        }
      ],
      "name": "burn",
      "outputs": [
        {
          "internalType": "bool",
          "name": "",
          "type": "bool"
        }
      ],
      "stateMutability": "nonpayable",
      "type": "function"
    },
    {
      "inputs": [
        {
          "internalType": "uint256",
          "name": "amount",
          "type": "uint256"
        }
      ],
      "name": "stake_amount",
      "outputs": [],
      "stateMutability": "nonpayable",
      "type": "function"
    },
    {
      "inputs": [
        {
          "internalType": "uint256",
          "name": "amount",
          "type": "uint256"
        },
        {
          "internalType": "uint256",
          "name": "index",
          "type": "uint256"
        }
      ],
      "name": "withdrawStake",
      "outputs": [],
      "stateMutability": "nonpayable",
      "type": "function"
    }
  ],
  "bytecode": "0x608060405260646002553480156200001657600080fd5b50604051620023223803806200232283398181016040528101906200003c9190620003f3565b6000600181600181540180825580915050039060005260206000209050508360039080519060200190620000729291906200016b565b5082600490805190602001906200008b9291906200016b565b508160058190555080600681905550600654600860003373ffffffffffffffffffffffffffffffffffffffff1673ffffffffffffffffffffffffffffffffffffffff1681526020019081526020016000208190555033600760006101000a81548173ffffffffffffffffffffffffffffffffffffffff021916908373ffffffffffffffffffffffffffffffffffffffff1602179055507fddf252ad1be2c89b69c2b068fc378daa952ba7f163c4a11628f55a4df523b3ef6000336006546040516200015993929190620004f9565b60405180910390a1505050506200059b565b828054620001799062000565565b90600052602060002090601f0160209004810192826200019d5760008555620001e9565b82601f10620001b857805160ff1916838001178555620001e9565b82800160010185558215620001e9579182015b82811115620001e8578251825591602001919060010190620001cb565b5b509050620001f89190620001fc565b5090565b5b8082111562000217576000816000905550600101620001fd565b5090565b6000604051905090565b600080fd5b600080fd5b600080fd5b600080fd5b6000601f19601f8301169050919050565b7f4e487b7100000000000000000000000000000000000000000000000000000000600052604160045260246000fd5b620002848262000239565b810181811067ffffffffffffffff82111715620002a657620002a56200024a565b5b80604052505050565b6000620002bb6200021b565b9050620002c9828262000279565b919050565b600067ffffffffffffffff821115620002ec57620002eb6200024a565b5b620002f78262000239565b9050602081019050919050565b60005b838110156200032457808201518184015260208101905062000307565b8381111562000334576000848401525b50505050565b6000620003516200034b84620002ce565b620002af565b90508281526020810184848401111562000370576200036f62000234565b5b6200037d84828562000304565b509392505050565b600082601f8301126200039d576200039c6200022f565b5b8151620003af8482602086016200033a565b91505092915050565b6000819050919050565b620003cd81620003b8565b8114620003d957600080fd5b50565b600081519050620003ed81620003c2565b92915050565b6000806000806080858703121562000410576200040f62000225565b5b600085015167ffffffffffffffff8111156200043157620004306200022a565b5b6200043f8782880162000385565b945050602085015167ffffffffffffffff8111156200046357620004626200022a565b5b620004718782880162000385565b93505060406200048487828801620003dc565b92505060606200049787828801620003dc565b91505092959194509250565b600073ffffffffffffffffffffffffffffffffffffffff82169050919050565b6000620004d082620004a3565b9050919050565b620004e281620004c3565b82525050565b620004f381620003b8565b82525050565b6000606082019050620005106000830186620004d7565b6200051f6020830185620004d7565b6200052e6040830184620004e8565b949350505050565b7f4e487b7100000000000000000000000000000000000000000000000000000000600052602260045260246000fd5b600060028204905060018216806200057e57607f821691505b6020821081141562000595576200059462000536565b5b50919050565b611d7780620005ab6000396000f3fe608060405234801561001057600080fd5b50600436106100f55760003560e01c806355b6ed5c11610097578063b7760c8f11610066578063b7760c8f14610288578063e9dcc2c5146102a4578063f1fdf469146102c0578063f88cca87146102dc576100f5565b806355b6ed5c146101ec57806376809ce31461021c57806395d89b411461023a5780639dc29fac14610258576100f5565b806323b872dd116100d357806323b872dd1461015257806327e235e31461016e578063384f58eb1461019e57806340c10f19146101bc576100f5565b806306fdde03146100fa578063095ea7b31461011857806318160ddd14610134575b600080fd5b61010261030c565b60405161010f9190611642565b60405180910390f35b610132600480360381019061012d91906116fd565b61039a565b005b61013c6104a6565b604051610149919061174c565b60405180910390f35b61016c60048036038101906101679190611767565b6104ac565b005b610188600480360381019061018391906117ba565b6106d3565b604051610195919061174c565b60405180910390f35b6101a66106eb565b6040516101b391906117f6565b60405180910390f35b6101d660048036038101906101d191906116fd565b610711565b6040516101e3919061182c565b60405180910390f35b61020660048036038101906102019190611847565b610781565b604051610213919061174c565b60405180910390f35b6102246107a6565b604051610231919061174c565b60405180910390f35b6102426107ac565b60405161024f9190611642565b60405180910390f35b610272600480360381019061026d91906116fd565b61083a565b60405161027f919061182c565b60405180910390f35b6102a2600480360381019061029d9190611887565b6108aa565b005b6102be60048036038101906102b991906118c7565b61093f565b005b6102da60048036038101906102d591906118f4565b610957565b005b6102f660048036038101906102f191906117ba565b610980565b6040516103039190611994565b60405180910390f35b60038054610319906119de565b80601f0160208091040260200160405190810160405280929190818152602001828054610345906119de565b80156103925780601f1061036757610100808354040283529160200191610392565b820191906000526020600020905b81548152906001019060200180831161037557829003601f168201915b505050505081565b80600860003373ffffffffffffffffffffffffffffffffffffffff1673ffffffffffffffffffffffffffffffffffffffff1681526020019081526020016000205410156103e657600080fd5b80600960003373ffffffffffffffffffffffffffffffffffffffff1673ffffffffffffffffffffffffffffffffffffffff16815260200190815260200160002060008473ffffffffffffffffffffffffffffffffffffffff1673ffffffffffffffffffffffffffffffffffffffff168152602001908152602001600020819055507ff0c939eb6a826391911442cba6d5a67238ac3d6ef13e3398f5def320a9629c5033838360405161049a93929190611a10565b60405180910390a15050565b60065481565b80600960008573ffffffffffffffffffffffffffffffffffffffff1673ffffffffffffffffffffffffffffffffffffffff16815260200190815260200160002060003373ffffffffffffffffffffffffffffffffffffffff1673ffffffffffffffffffffffffffffffffffffffff16815260200190815260200160002054101561053557600080fd5b80600860008573ffffffffffffffffffffffffffffffffffffffff1673ffffffffffffffffffffffffffffffffffffffff16815260200190815260200160002054101561058157600080fd5b600073ffffffffffffffffffffffffffffffffffffffff168273ffffffffffffffffffffffffffffffffffffffff1614156105bb57600080fd5b6105c6838383610bf2565b80600960008573ffffffffffffffffffffffffffffffffffffffff1673ffffffffffffffffffffffffffffffffffffffff16815260200190815260200160002060003373ffffffffffffffffffffffffffffffffffffffff1673ffffffffffffffffffffffffffffffffffffffff1681526020019081526020016000205461064e9190611a76565b600960008573ffffffffffffffffffffffffffffffffffffffff1673ffffffffffffffffffffffffffffffffffffffff16815260200190815260200160002060003373ffffffffffffffffffffffffffffffffffffffff1673ffffffffffffffffffffffffffffffffffffffff16815260200190815260200160002081905550505050565b60086020528060005260406000206000915090505481565b600760009054906101000a900473ffffffffffffffffffffffffffffffffffffffff1681565b6000600760009054906101000a900473ffffffffffffffffffffffffffffffffffffffff1673ffffffffffffffffffffffffffffffffffffffff163373ffffffffffffffffffffffffffffffffffffffff161461076d57600080fd5b6107778383610d4e565b6001905092915050565b6009602052816000526040600020602052806000526040600020600091509150505481565b60055481565b600480546107b9906119de565b80601f01602080910402602001604051908101604052809291908181526020018280546107e5906119de565b80156108325780601f1061080757610100808354040283529160200191610832565b820191906000526020600020905b81548152906001019060200180831161081557829003601f168201915b505050505081565b6000600760009054906101000a900473ffffffffffffffffffffffffffffffffffffffff1673ffffffffffffffffffffffffffffffffffffffff163373ffffffffffffffffffffffffffffffffffffffff161461089657600080fd5b6108a08383610e6a565b6001905092915050565b81600860003373ffffffffffffffffffffffffffffffffffffffff1673ffffffffffffffffffffffffffffffffffffffff1681526020019081526020016000205410156108f657600080fd5b600073ffffffffffffffffffffffffffffffffffffffff168173ffffffffffffffffffffffffffffffffffffffff16141561093057600080fd5b61093b338284610bf2565b5050565b6109493382610fd2565b506109543382610e6a565b50565b6000610964338484611191565b905061097b3382856109769190611aaa565b610d4e565b505050565b610988611572565b6000600160008473ffffffffffffffffffffffffffffffffffffffff1673ffffffffffffffffffffffffffffffffffffffff16815260200190815260200160002054905060008082815481106109e1576109e0611b00565b5b90600052602060002090600202016040518060400160405290816000820160009054906101000a900473ffffffffffffffffffffffffffffffffffffffff1673ffffffffffffffffffffffffffffffffffffffff1673ffffffffffffffffffffffffffffffffffffffff16815260200160018201805480602002602001604051908101604052809291908181526020016000905b82821015610b1157838290600052602060002090600302016040518060600160405290816000820160009054906101000a900473ffffffffffffffffffffffffffffffffffffffff1673ffffffffffffffffffffffffffffffffffffffff1673ffffffffffffffffffffffffffffffffffffffff1681526020016001820154815260200160028201548152505081526020019060010190610a75565b5050505081525050905060008160200151519050610b2d611572565b85816000019073ffffffffffffffffffffffffffffffffffffffff16908173ffffffffffffffffffffffffffffffffffffffff168152505060005b82811015610be557600084602001518281518110610b8957610b88611b00565b5b60200260200101519050610b9c8161143d565b83604001818151610bad9190611aaa565b91508181525050806020015183602001818151610bca9190611aaa565b91508181525050508080610bdd90611b2f565b915050610b68565b5080945050505050919050565b80600860008573ffffffffffffffffffffffffffffffffffffffff1673ffffffffffffffffffffffffffffffffffffffff16815260200190815260200160002054610c3d9190611a76565b600860008573ffffffffffffffffffffffffffffffffffffffff1673ffffffffffffffffffffffffffffffffffffffff1681526020019081526020016000208190555080600860008473ffffffffffffffffffffffffffffffffffffffff1673ffffffffffffffffffffffffffffffffffffffff16815260200190815260200160002054610ccb9190611aaa565b600860008473ffffffffffffffffffffffffffffffffffffffff1673ffffffffffffffffffffffffffffffffffffffff168152602001908152602001600020819055507fddf252ad1be2c89b69c2b068fc378daa952ba7f163c4a11628f55a4df523b3ef338383604051610d4193929190611a10565b60405180910390a1505050565b600073ffffffffffffffffffffffffffffffffffffffff168273ffffffffffffffffffffffffffffffffffffffff161415610d8857600080fd5b80600860008473ffffffffffffffffffffffffffffffffffffffff1673ffffffffffffffffffffffffffffffffffffffff16815260200190815260200160002054610dd39190611aaa565b600860008473ffffffffffffffffffffffffffffffffffffffff1673ffffffffffffffffffffffffffffffffffffffff1681526020019081526020016000208190555080600654610e249190611aaa565b6006819055507fddf252ad1be2c89b69c2b068fc378daa952ba7f163c4a11628f55a4df523b3ef60008383604051610e5e93929190611a10565b60405180910390a15050565b600073ffffffffffffffffffffffffffffffffffffffff168273ffffffffffffffffffffffffffffffffffffffff161415610ea457600080fd5b80600860008473ffffffffffffffffffffffffffffffffffffffff1673ffffffffffffffffffffffffffffffffffffffff168152602001908152602001600020541015610ef057600080fd5b80600860008473ffffffffffffffffffffffffffffffffffffffff1673ffffffffffffffffffffffffffffffffffffffff16815260200190815260200160002054610f3b9190611a76565b600860008473ffffffffffffffffffffffffffffffffffffffff1673ffffffffffffffffffffffffffffffffffffffff1681526020019081526020016000208190555080600654610f8c9190611a76565b6006819055507fddf252ad1be2c89b69c2b068fc378daa952ba7f163c4a11628f55a4df523b3ef82600083604051610fc693929190611a10565b60405180910390a15050565b6000808211611016576040517f08c379a000000000000000000000000000000000000000000000000000000000815260040161100d90611bc4565b60405180910390fd5b6000600160008573ffffffffffffffffffffffffffffffffffffffff1673ffffffffffffffffffffffffffffffffffffffff168152602001908152602001600020549050600081141561106f5761106c8461148c565b90505b6000818154811061108357611082611b00565b5b906000526020600020906002020160010160405180606001604052808673ffffffffffffffffffffffffffffffffffffffff16815260200185815260200142815250908060018154018082558091505060019003906000526020600020906003020160009091909190915060008201518160000160006101000a81548173ffffffffffffffffffffffffffffffffffffffff021916908373ffffffffffffffffffffffffffffffffffffffff160217905550602082015181600101556040820151816002015550507f5af417134f72a9d41143ace85b0a26dce6f550f894f2cbc1eeee8810603d91b684844260405161117e93929190611be4565b60405180910390a1600191505092915050565b600080600160008673ffffffffffffffffffffffffffffffffffffffff1673ffffffffffffffffffffffffffffffffffffffff16815260200190815260200160002054905060008082815481106111eb576111ea611b00565b5b9060005260206000209060020201600101848154811061120e5761120d611b00565b5b90600052602060002090600302016040518060600160405290816000820160009054906101000a900473ffffffffffffffffffffffffffffffffffffffff1673ffffffffffffffffffffffffffffffffffffffff1673ffffffffffffffffffffffffffffffffffffffff16815260200160018201548152602001600282015481525050905084816020015110156112da576040517f08c379a00000000000000000000000000000000000000000000000000000000081526004016112d190611c67565b60405180910390fd5b60006112e58261143d565b90508582602001516112f79190611a76565b826020018181525050600082602001511415611391576000838154811061132157611320611b00565b5b9060005260206000209060020201600101858154811061134457611343611b00565b5b9060005260206000209060030201600080820160006101000a81549073ffffffffffffffffffffffffffffffffffffffff0219169055600182016000905560028201600090555050611430565b8160200151600084815481106113aa576113a9611b00565b5b906000526020600020906002020160010186815481106113cd576113cc611b00565b5b90600052602060002090600302016001018190555042600084815481106113f7576113f6611b00565b5b9060005260206000209060020201600101868154811061141a57611419611b00565b5b9060005260206000209060030201600201819055505b8093505050509392505050565b60006002548260200151610e108460400151610e104261145d9190611aaa565b6114679190611a76565b6114719190611cb6565b61147b9190611ce7565b6114859190611cb6565b9050919050565b60008060018160018154018082558091505003906000526020600020905050600060016000805490506114bf9190611a76565b905080600160008573ffffffffffffffffffffffffffffffffffffffff1673ffffffffffffffffffffffffffffffffffffffff16815260200190815260200160002081905550826000828154811061151a57611519611b00565b5b906000526020600020906002020160000160006101000a81548173ffffffffffffffffffffffffffffffffffffffff021916908373ffffffffffffffffffffffffffffffffffffffff16021790555080915050919050565b6040518060600160405280600073ffffffffffffffffffffffffffffffffffffffff16815260200160008152602001600081525090565b600081519050919050565b600082825260208201905092915050565b60005b838110156115e35780820151818401526020810190506115c8565b838111156115f2576000848401525b50505050565b6000601f19601f8301169050919050565b6000611614826115a9565b61161e81856115b4565b935061162e8185602086016115c5565b611637816115f8565b840191505092915050565b6000602082019050818103600083015261165c8184611609565b905092915050565b600080fd5b600073ffffffffffffffffffffffffffffffffffffffff82169050919050565b600061169482611669565b9050919050565b6116a481611689565b81146116af57600080fd5b50565b6000813590506116c18161169b565b92915050565b6000819050919050565b6116da816116c7565b81146116e557600080fd5b50565b6000813590506116f7816116d1565b92915050565b6000806040838503121561171457611713611664565b5b6000611722858286016116b2565b9250506020611733858286016116e8565b9150509250929050565b611746816116c7565b82525050565b6000602082019050611761600083018461173d565b92915050565b6000806000606084860312156117805761177f611664565b5b600061178e868287016116b2565b935050602061179f868287016116b2565b92505060406117b0868287016116e8565b9150509250925092565b6000602082840312156117d0576117cf611664565b5b60006117de848285016116b2565b91505092915050565b6117f081611689565b82525050565b600060208201905061180b60008301846117e7565b92915050565b60008115159050919050565b61182681611811565b82525050565b6000602082019050611841600083018461181d565b92915050565b6000806040838503121561185e5761185d611664565b5b600061186c858286016116b2565b925050602061187d858286016116b2565b9150509250929050565b6000806040838503121561189e5761189d611664565b5b60006118ac858286016116e8565b92505060206118bd858286016116b2565b9150509250929050565b6000602082840312156118dd576118dc611664565b5b60006118eb848285016116e8565b91505092915050565b6000806040838503121561190b5761190a611664565b5b6000611919858286016116e8565b925050602061192a858286016116e8565b9150509250929050565b61193d81611689565b82525050565b61194c816116c7565b82525050565b6060820160008201516119686000850182611934565b50602082015161197b6020850182611943565b50604082015161198e6040850182611943565b50505050565b60006060820190506119a96000830184611952565b92915050565b7f4e487b7100000000000000000000000000000000000000000000000000000000600052602260045260246000fd5b600060028204905060018216806119f657607f821691505b60208210811415611a0a57611a096119af565b5b50919050565b6000606082019050611a2560008301866117e7565b611a3260208301856117e7565b611a3f604083018461173d565b949350505050565b7f4e487b7100000000000000000000000000000000000000000000000000000000600052601160045260246000fd5b6000611a81826116c7565b9150611a8c836116c7565b925082821015611a9f57611a9e611a47565b5b828203905092915050565b6000611ab5826116c7565b9150611ac0836116c7565b9250827fffffffffffffffffffffffffffffffffffffffffffffffffffffffffffffffff03821115611af557611af4611a47565b5b828201905092915050565b7f4e487b7100000000000000000000000000000000000000000000000000000000600052603260045260246000fd5b6000611b3a826116c7565b91507fffffffffffffffffffffffffffffffffffffffffffffffffffffffffffffffff821415611b6d57611b6c611a47565b5b600182019050919050565b7f43616e206e6f74207374616b6520302000000000000000000000000000000000600082015250565b6000611bae6010836115b4565b9150611bb982611b78565b602082019050919050565b60006020820190508181036000830152611bdd81611ba1565b9050919050565b6000606082019050611bf960008301866117e7565b611c06602083018561173d565b611c13604083018461173d565b949350505050565b7f43616e206e6f74207769746864726177206d6f7265207468616e207374616b65600082015250565b6000611c516020836115b4565b9150611c5c82611c1b565b602082019050919050565b60006020820190508181036000830152611c8081611c44565b9050919050565b7f4e487b7100000000000000000000000000000000000000000000000000000000600052601260045260246000fd5b6000611cc1826116c7565b9150611ccc836116c7565b925082611cdc57611cdb611c87565b5b828204905092915050565b6000611cf2826116c7565b9150611cfd836116c7565b9250817fffffffffffffffffffffffffffffffffffffffffffffffffffffffffffffffff0483118215151615611d3657611d35611a47565b5b82820290509291505056fea264697066735822122032e0c95f2e476ee0d37e880c528a4fc368a5abc39de192e107ef71554671da2d64736f6c63430008090033",
  "immutableReferences": {},
  "source": "// SPDX-License-Identifier: MIT\n\npragma solidity ^0.8.4;\n\nimport \"./Stakeable.sol\";\n\ncontract MyToken is Stakeable{\n    \n     \n    string public name;\n    string public symbol;\n    uint256 public decimal;\n    uint256 public totalSupply;\n    address public contract_owner;\n    \n    mapping  (address => uint256) public balances;\n    mapping (address => mapping(address => uint256)) public allowances;\n    \n    event Transfer(address sender, address receiver, uint256 amount ) ;\n    \n    event Allowance(address owner, address spender, uint256 amount );\n    \n    modifier OnlyOwner {\n        require (msg.sender == contract_owner);\n        _;\n    }\n    \n    constructor(string memory _name, string memory _symbol, uint256 _decimal, uint256 _totalSupply){\n        name = _name;\n        symbol = _symbol; \n        decimal = _decimal;\n        totalSupply = _totalSupply;\n        balances[msg.sender] = totalSupply;\n        contract_owner = msg.sender;\n        \n        emit Transfer(address(0), msg.sender, totalSupply);\n    }\n    \n    function transfer(uint256 amount, address recepient) external {\n        require (balances[msg.sender] >= amount);\n        require (recepient != address(0));\n        _trasnfer(msg.sender, recepient, amount);\n    }\n    \n    function _trasnfer(address sender, address recepient, uint256 amount) internal{\n        \n        balances[sender] = balances[sender] - amount;\n        balances[recepient] = balances [recepient] +amount;\n        \n        emit Transfer(msg.sender, recepient, amount);\n    }\n    \n    function approve(address recepient, uint256 amount) external {\n        require (balances[msg.sender] >= amount);\n        allowances [msg.sender][recepient] = amount;\n        emit Allowance(msg.sender,recepient, amount);\n    } \n    \n    function transferFrom(address owner,address recepient, uint256 amount) external{\n        require(allowances[owner][msg.sender] >= amount);\n        require(balances[owner] >= amount);\n        require(recepient != (address(0)));\n        \n        _trasnfer (owner, recepient, amount);\n        \n        allowances[owner][msg.sender]  =  allowances[owner][msg.sender] - amount; \n        \n    }\n    \n    function _mint(address recepient, uint256 amount) internal {\n        require(recepient != address(0));\n        balances[recepient]  = balances [recepient] + amount;\n        totalSupply = totalSupply + amount;\n        \n        emit Transfer(address(0), recepient, amount);\n    } \n    \n    function mint(address recepient, uint256 amount) external OnlyOwner returns (bool) {\n        _mint(recepient, amount);\n        return true; \n    }\n    \n    function burn(address sender, uint256 amount ) external OnlyOwner returns (bool) {\n        _burn (sender, amount); \n        return true; \n    }\n    \n    function _burn(address sender, uint256 amount) internal{\n        require (sender != address(0));\n        require (balances[sender] >= amount);\n        balances [sender] = balances[sender] - amount;\n        totalSupply = totalSupply - amount; \n        emit Transfer(sender, address(0), amount);\n        \n    }\n    \n    function stake_amount(uint256 amount) external {\n        \n        _stake(msg.sender,amount);\n        _burn(msg.sender, amount);\n        \n    } \n    \n    function withdrawStake(uint256 amount, uint256 index) external{\n        \n        uint256 reward = _withdrawStake (msg.sender, amount, index);\n        _mint(msg.sender,amount+reward);\n        \n    }\n    \n    // function stakedsummary() external returns (struct UserSummary){\n    //     return _calculateSummary(msg.sender);\n    // }\n     \n    \n    \n    \n}",
  "sourcePath": "/Users/tania/Documents/Remix-Project/Staking/contracts/MyToken.sol",
  "compiler": {
    "name": "solc",
    "version": "0.8.9+commit.e5eed63a.Emscripten.clang"
  },
  "schemaVersion": "3.4.3",
  "updatedAt": "2021-11-05T05:57:57.424Z",
  "networkType": "ethereum",
  "devdoc": {
    "kind": "dev",
    "methods": {},
    "version": 1
  },
  "userdoc": {
    "kind": "user",
    "methods": {},
    "version": 1
  }
}