{
  "contractName": "Stakeable",
  "abi": [
    {
      "inputs": [],
      "stateMutability": "nonpayable",
      "type": "constructor"
    },
    {
      "anonymous": false,
      "inputs": [
        {
          "indexed": false,
          "internalType": "address",
          "name": "staker",
          "type": "address"
        },
        {
          "indexed": false,
          "internalType": "uint256",
          "name": "amount",
          "type": "uint256"
        },
        {
          "indexed": false,
          "internalType": "uint256",
          "name": "",
          "type": "uint256"
        }
      ],
      "name": "Stake",
      "type": "event"
    },
    {
      "inputs": [
        {
          "internalType": "address",
          "name": "staker_address",
          "type": "address"
        }
      ],
      "name": "_calculateSummary",
      "outputs": [
        {
          "components": [
            {
              "internalType": "address",
              "name": "user",
              "type": "address"
            },
            {
              "internalType": "uint256",
              "name": "total_staked_amount",
              "type": "uint256"
            },
            {
              "internalType": "uint256",
              "name": "total_reward",
              "type": "uint256"
            }
          ],
          "internalType": "struct Stakeable.UserSummary",
          "name": "",
          "type": "tuple"
        }
      ],
      "stateMutability": "view",
      "type": "function"
    }
  ],
  "bytecode": "0x6080604052606460025534801561001557600080fd5b5060006001816001815401808255809150500390600052602060002090505061068e806100436000396000f3fe608060405234801561001057600080fd5b506004361061002b5760003560e01c8063f88cca8714610030575b600080fd5b61004a600480360381019061004591906103bb565b610060565b6040516100579190610452565b60405180910390f35b610068610321565b6000600160008473ffffffffffffffffffffffffffffffffffffffff1673ffffffffffffffffffffffffffffffffffffffff16815260200190815260200160002054905060008082815481106100c1576100c061046d565b5b90600052602060002090600202016040518060400160405290816000820160009054906101000a900473ffffffffffffffffffffffffffffffffffffffff1673ffffffffffffffffffffffffffffffffffffffff1673ffffffffffffffffffffffffffffffffffffffff16815260200160018201805480602002602001604051908101604052809291908181526020016000905b828210156101f157838290600052602060002090600302016040518060600160405290816000820160009054906101000a900473ffffffffffffffffffffffffffffffffffffffff1673ffffffffffffffffffffffffffffffffffffffff1673ffffffffffffffffffffffffffffffffffffffff1681526020016001820154815260200160028201548152505081526020019060010190610155565b505050508152505090506000816020015151905061020d610321565b85816000019073ffffffffffffffffffffffffffffffffffffffff16908173ffffffffffffffffffffffffffffffffffffffff168152505060005b828110156102c5576000846020015182815181106102695761026861046d565b5b6020026020010151905061027c816102d2565b8360400181815161028d91906104cb565b915081815250508060200151836020018181516102aa91906104cb565b915081815250505080806102bd90610521565b915050610248565b5080945050505050919050565b60006002548260200151610e108460400151610e10426102f291906104cb565b6102fc919061056a565b61030691906105cd565b61031091906105fe565b61031a91906105cd565b9050919050565b6040518060600160405280600073ffffffffffffffffffffffffffffffffffffffff16815260200160008152602001600081525090565b600080fd5b600073ffffffffffffffffffffffffffffffffffffffff82169050919050565b60006103888261035d565b9050919050565b6103988161037d565b81146103a357600080fd5b50565b6000813590506103b58161038f565b92915050565b6000602082840312156103d1576103d0610358565b5b60006103df848285016103a6565b91505092915050565b6103f18161037d565b82525050565b6000819050919050565b61040a816103f7565b82525050565b60608201600082015161042660008501826103e8565b5060208201516104396020850182610401565b50604082015161044c6040850182610401565b50505050565b60006060820190506104676000830184610410565b92915050565b7f4e487b7100000000000000000000000000000000000000000000000000000000600052603260045260246000fd5b7f4e487b7100000000000000000000000000000000000000000000000000000000600052601160045260246000fd5b60006104d6826103f7565b91506104e1836103f7565b9250827fffffffffffffffffffffffffffffffffffffffffffffffffffffffffffffffff038211156105165761051561049c565b5b828201905092915050565b600061052c826103f7565b91507fffffffffffffffffffffffffffffffffffffffffffffffffffffffffffffffff82141561055f5761055e61049c565b5b600182019050919050565b6000610575826103f7565b9150610580836103f7565b9250828210156105935761059261049c565b5b828203905092915050565b7f4e487b7100000000000000000000000000000000000000000000000000000000600052601260045260246000fd5b60006105d8826103f7565b91506105e3836103f7565b9250826105f3576105f261059e565b5b828204905092915050565b6000610609826103f7565b9150610614836103f7565b9250817fffffffffffffffffffffffffffffffffffffffffffffffffffffffffffffffff048311821515161561064d5761064c61049c565b5b82820290509291505056fea26469706673582212209f8e78be32d67eb11e463f7e71b99bf0e329155015b0f4b1a0bb017a7e54b31a64736f6c63430008090033",
  "immutableReferences": {},
  "source": "// SPDX-License-Identifier: MIT\n\npragma solidity ^0.8.4;\n\n\ncontract Stakeable {\n    \n    struct stake{\n        address user; \n        uint256 amount; \n        uint256 starttime; \n    }\n    \n    struct stakeholder {\n        address staker;\n        stake[] total_stakes;\n    }\n    \n    stakeholder [] StakeHolder;\n    \n    mapping (address => uint256) stakers_index;\n    \n    event Stake(address staker, uint256 amount, uint256);\n    \n    uint256 PerHourReward = 100; \n    \n    struct UserSummary  {\n        address user; \n        uint256 total_staked_amount;\n        uint256 total_reward; \n    } \n    \n    constructor(){\n        \n        StakeHolder.push();\n    }\n    \n    function _addstakeholders(address staker_address) internal returns (uint256) {\n        \n        StakeHolder.push();\n        \n        uint256 index = StakeHolder.length -1;\n        \n        stakers_index[staker_address] = index;\n        \n        \n        StakeHolder[index].staker  = staker_address;\n        \n        return index;\n        // return StakeHolder[index].total_stakes.length -1;\n        \n    }\n    \n    function _stake(address staker_address, uint256 amount) internal returns (bool) {\n        require (amount > 0, \"Can not stake 0 \");\n        \n        uint256 index = stakers_index[staker_address];\n        \n        if (index == 0){\n            index = _addstakeholders(staker_address);\n        }\n        \n        StakeHolder[index].total_stakes.push(stake(staker_address, amount, block.timestamp));\n        \n        emit Stake (staker_address, amount, block.timestamp);\n        return true;\n    }\n    \n    function _withdrawStake(address staker_address,uint256 amount, uint256 stake_index) internal returns (uint256){\n         \n        uint256 index = stakers_index[staker_address];\n        \n        stake memory user_stake = StakeHolder[index].total_stakes[stake_index];  \n        \n        require (user_stake.amount >= amount, \"Can not withdraw more than stake\");\n        \n        uint256 reward = _calculateReward (user_stake);\n        \n        user_stake.amount = user_stake.amount - amount; \n        \n        if (user_stake.amount == 0 ){\n            delete StakeHolder[index].total_stakes[stake_index];\n            \n        }\n        else{\n            StakeHolder[index].total_stakes[stake_index].amount = user_stake.amount; \n            StakeHolder[index].total_stakes[stake_index].starttime = block.timestamp;\n        }\n        \n        return reward;\n        \n    }\n    \n    function _calculateReward(stake memory user_stake) view internal returns (uint256){\n        \n        // index = stakers_index[staker_address];\n        \n        // stake memory user_stake = StakeHolder[index].total_stakes[index];  \n        \n        // difference of time \n        \n        // for testing purpose only increasing the time to one hour; \n        \n        // return (((block.timestamp - user_stake.starttime)/ 1 hours ) *user_stake.amount ) / PerHourReward;  \n        \n        return ((((block.timestamp + 1 hours )- user_stake.starttime)/ 1 hours ) *user_stake.amount ) / PerHourReward;  \n        \n    }\n    \n    function _calculateSummary (address staker_address ) external view returns (UserSummary memory) {\n        \n        uint256 user_index = stakers_index[staker_address];\n        stakeholder memory user_stake_list = StakeHolder[user_index];\n        uint256 total_user_stake = user_stake_list.total_stakes.length;\n        \n        UserSummary memory usersummary;\n        usersummary.user = staker_address;\n        \n        for (uint i =0; i<total_user_stake; i++){\n            stake memory user_stake = user_stake_list.total_stakes[i];\n            usersummary.total_reward += _calculateReward(user_stake); \n            usersummary.total_staked_amount += user_stake.amount;\n        }\n        \n        return usersummary;\n        \n    }\n    \n}",
  "sourcePath": "/Users/tania/Documents/Remix-Project/Staking/contracts/Stakeable.sol",
  "compiler": {
    "name": "solc",
    "version": "0.8.9+commit.e5eed63a.Emscripten.clang"
  },
  "schemaVersion": "3.4.3",
  "updatedAt": "2021-11-05T05:53:55.819Z",
  "devdoc": {
    "kind": "dev",
    "methods": {},
    "version": 1
  },
  "userdoc": {
    "kind": "user",
    "methods": {},
    "version": 1
  }
}